:020000040800F2
:10000000C04C0020BD7F00088B340108A97F000888
:10001000A97F0008A97F0008A97F00080000000050
:1000200000000000000000000000000099800008AF
:10003000A97F0008000000002D80000839A00008FA
:1000400025820008258200082582000825820008F4
:1000500025820008258200082582000825820008E4
:1000600025820008258200082582000825820008D4
:1000700025820008258200082582000825820008C4
:1000800025820008258200082582000825820008B4
:1000900025820008258200082582000825820008A4
:1000A0002582000825820008258200082582000894
:1000B0002582000825820008258200082582000884
:1000C0002582000825820008258200082582000874
:1000D0002582000825820008258200082582000864
:1000E0002582000825820008258200082582000854
:1000F0002582000825820008258200082582000844
:100100002582000825820008258200082582000833
:100110002582000825820008258200082582000823
:100120002582000825820008258200082582000813
:100130002582000825820008258200082582000803
:1001400025820008258200082582000825820008F3
:1001500025820008258200082582000825820008E3
:1001600025820008258200082582000825820008D3
:1001700025820008258200082582000825820008C3
:1001800025820008258200082582000825820008B3
:1001900025820008258200082582000825820008A3
:1001A0002582000825820008258200082582000893
:1001B0002582000825820008258200082582000883
:1001C0002582000825820008258200082582000873
:0801D0002582000825820008C9
:1002000090F800F06DE9024520F007016FF0000C56
:1002100010F0070491F820F040F049804FF00004FE
:100220006FF00700D1E9002391F840F000F10800D9
:1002300082FA4CF2A4FA8CF283FA4CF3A2FA8CF311
:100240004BBBD1E9022382FA4CF200F10800A4FA78
:100250008CF283FA4CF3A2FA8CF3E3B9D1E90423CC
:1002600082FA4CF200F10800A4FA8CF283FA4CF303
:10027000A2FA8CF37BB9D1E9062301F1200182FABD
:100280004CF200F10800A4FA8CF283FA4CF3A2FAC3
:100290008CF3002BC6D0002A04BF04301A4612BAD1
:1002A000B2FA82F2FDE8024500EBD2007047D1E9D4
:1002B000002304F00305C4F100004FEAC50514F063
:1002C000040F91F840F00CFA05F562EA05021CBF34
:1002D00063EA050362464FF00004A9E7000000004E
:1002E000A2EB0300704700BF02780B78012A28BFF9
:1002F0009A42F5D16DE9044540EA0104CDE902676F
:100300006FF0000C4FEA447212B380EA010414F05B
:10031000070F6AD100F0070420F0070004F003057E
:1003200021F007014FEAC505F0E8042314F0040F9B
:10033000F1E804670CFA05F462EA040266EA0406CE
:100340000AD063EA0403624667EA0407664603E0EC
:10035000F0E80423F1E8046782FA4CF582EA060427
:10036000A4FA8CF46CBB83FA4CF583EA0705A5FA72
:100370008CF595B950E9022351E9026782FA4CF5F0
:1003800082EA0604A4FA8CF483FA4CF583EA0705A2
:10039000A5FA8CF52543DBD09CB92DBAB5FA85F4C6
:1003A00024F0070427FA04F1DDE9026723FA04F3D5
:1003B00003F0FF0001F0FF01FDE80445A0EB0100A0
:1003C000704724BAB4FA84F424F0070426FA04F13E
:1003D000DDE9026722FA04F202F0FF0001F0FF01FA
:1003E000FDE80445A0EB0100704714F0030F3CD179
:1003F00010F0030428D150F8082B51F8083B82FA7A
:100400004CF582EA0305A5FA8CF55DB950F8042C89
:1004100051F8043C82FA4CF582EA0305A5FA8CF502
:10042000002DE8D02DBAB5FA85F424F0070423FA9C
:1004300004F122FA04F202F0FF0001F0FF01FDE8EE
:100440000445A0EB010070474FEAC40420F003000C
:1004500050F8082B21F0030151F8083B0CFA04F482
:1004600062EA040263EA0403C9E710F003041AD045
:10047000A1EB040120F00300E40750F8042B06D0A0
:100480000FD28B785FFAA2F4E41A06D12BB1CB78A5
:100490005FFAB2F4E41A00D11BB920465DF8104BA4
:1004A000704701F1040150F8042BCC0721F003013F
:1004B00051F8043B48D824D222F07F4482FA4CF50C
:1004C00094EA1325A5FA8CF50AD165B951F8043BD5
:1004D00084EA0204B4EB036F0ED150F8042BEBE76F
:1004E0004FEA132355E035F07F454DD10878FDE8FC
:1004F0000445C0F1000070474FEA126203F0FF03A9
:1005000047E002EA1C4482FA4CF594EA1345A5FA46
:100510008CF50AD165B951F8043B84EA0204B4EBC6
:10052000034F0CD150F8042BEBE74FEA134330E0B4
:1005300015EA1C4528D10B884FEA124229E04FEA00
:10054000124203EA1C4324E002F0FF0482FA4CF555
:1005500094EA1365A5FA8CF50AD165B951F8043B04
:1005600084EA0204B4EB032F09D150F8042BEBE723
:100570004FEA13630DE015F0FF0F05D10B684FEA4A
:10058000122223F07F4304E04FF00000FDE8044511
:10059000704712BA1BBA82FA4CF482EA0304A4FA36
:1005A0008CF5B5FA85F402FA04F203FA04F34FEA83
:1005B0001260FDE80445A0EB1360704700000000E6
:1005C00001F0FF01102A2BDB10F0070F08D010F804
:1005D000013B013A8B422DD010F0070F42B3F6D108
:1005E000F0B441EA012141EA014122F007047FF021
:1005F00000070023F0E80256083C85EA010586EA78
:10060000010685FA47F5A3FA87F586FA47F6A5FAB3
:1006100087F68EB9EED1F0BC01F0FF0102F00702BF
:1006200032B110F8013B013A83EA010313B1F8D16A
:100630000020704701387047002D06BF354603384B
:10064000073815F0010F07D1013015F4807F02BF84
:10065000013015F4C03F0130F0BC0138704700BFD5
:10066000844641EA000313F003036DD1403A41D3BD
:1006700051F8043B40F8043B51F8043B40F8043B7C
:1006800051F8043B40F8043B51F8043B40F8043B6C
:1006900051F8043B40F8043B51F8043B40F8043B5C
:1006A00051F8043B40F8043B51F8043B40F8043B4C
:1006B00051F8043B40F8043B51F8043B40F8043B3C
:1006C00051F8043B40F8043B51F8043B40F8043B2C
:1006D00051F8043B40F8043B51F8043B40F8043B1C
:1006E00051F8043B40F8043B51F8043B40F8043B0C
:1006F000403ABDD2303211D351F8043B40F8043BAC
:1007000051F8043B40F8043B51F8043B40F8043BEB
:1007100051F8043B40F8043B103AEDD20C3205D3BB
:1007200051F8043B40F8043B043AF9D2043208D0B3
:10073000D2071CBF11F8013B00F8013B01D30B8825
:1007400003806046704700BF082A13D38B078DD003
:1007500010F003038AD0C3F10403D21ADB071CBFD5
:1007600011F8013B00F8013B80D331F8023B20F83F
:10077000023B7BE7043AD9D3013A11F8013B00F878
:10078000013BF9D20B7803704B7843708B78837000
:100790006046704781F0004102E000BF83F00043F3
:1007A00030B54FEA41044FEA430594EA050F08BF0C
:1007B00090EA020F1FBF54EA000C55EA020C7FEAD0
:1007C000645C7FEA655C00F0E2804FEA5454D4EB4D
:1007D0005555B8BF6D420CDD2C4480EA020281EA17
:1007E000030382EA000083EA010180EA020281EA4F
:1007F0000303362D88BF30BD11F0004F4FEA0131A1
:100800004FF4801C4CEA113102D0404261EB4101AF
:1008100013F0004F4FEA03334CEA133302D0524235
:1008200063EB430394EA050F00F0A780A4F10104F1
:10083000D5F1200E0DDB02FA0EFC22FA05F280182B
:1008400041F1000103FA0EF2801843FA05F3594111
:100850000EE0A5F120050EF1200E012A03FA0EFC90
:1008600028BF4CF0020C43FA05F3C01851EBE371BA
:1008700001F0004507D54FF0000EDCF1000C7EEBD7
:1008800000006EEB0101B1F5801F1BD3B1F5001F15
:100890000CD349085FEA30004FEA3C0C04F1010434
:1008A0004FEA445212F5800F80F09A80BCF1004F5D
:1008B00008BF5FEA500C50F1000041EB045141EADF
:1008C000050130BD5FEA4C0C404141EB0101013CA8
:1008D00028BFB1F5801FE9D291F0000F04BF014697
:1008E0000020B1FA81F308BF2033A3F10B03B3F169
:1008F00020020CDA0C3208DD02F1140CC2F10C02F9
:1009000001FA0CF021FA02F10CE002F11402D8BF56
:10091000C2F1200C01FA02F120FA0CFCDCBF41EA22
:100920000C019040E41AA2BF01EB0451294330BDF1
:100930006FEA04041F3C1CDA0C340EDC04F11404CE
:10094000C4F1200220FA04F001FA02F340EA0300A5
:1009500021FA04F345EA030130BDC4F10C04C4F1EB
:10096000200220FA02F001FA04F340EA03002946CB
:1009700030BD21FA04F0294630BD94F0000F83F415
:10098000801306BF81F480110134013D4EE77FEAF8
:10099000645C18BF7FEA655C29D094EA050F08BF44
:1009A00090EA020F05D054EA000C04BF1946104625
:1009B00030BD91EA030F1EBF0021002030BD5FEA69
:1009C000545C05D14000494128BF41F0004130BD91
:1009D00014F580043CBF01F5801130BD01F00045E5
:1009E00045F0FE4141F470014FF0000030BD7FEA58
:1009F000645C1ABF194610467FEA655C1CBF0B4653
:100A0000024650EA013406BF52EA033591EA030F69
:100A100041F4002130BD00BF90F0000F04BF002161
:100A2000704730B54FF4806404F132044FF0000594
:100A30004FF0000150E700BF90F0000F04BF00210D
:100A4000704730B54FF4806404F1320410F0004573
:100A500048BF40424FF000013EE700BF42004FEA6E
:100A6000E2014FEA31014FEA02701FBF12F07F43EB
:100A700093F07F4F81F06051704732F07F4208BFA2
:100A8000704793F07F4F04BF41F40021704730B5A9
:100A90004FF4607401F0004521F000411CE700BFF5
:100AA00050EA010208BF704730B54FF000050AE078
:100AB00050EA010208BF704730B511F0004502D579
:100AC000404261EB41014FF4806404F132045FEA7B
:100AD000915C3FF4D8AE4FF003025FEADC0C18BF24
:100AE00003325FEADC0C18BF033202EBDC02C2F116
:100AF000200300FA03FC20FA02F001FA03FE40EAA8
:100B00000E0021FA02F11444BDE600BF70B54FF0AB
:100B1000FF0C4CF4E06C1CEA11541DBF1CEA135589
:100B200094EA0C0F95EA0C0F00F0DEF82C4481EAF1
:100B3000030621EA4C5123EA4C5350EA013518BF11
:100B400052EA033541F4801143F4801338D0A0FBFE
:100B500002CE4FF00005E1FB02E506F00042E0FBAB
:100B600003E54FF00006E1FB03569CF0000F18BFB1
:100B70004EF0010EA4F1FF04B6F5007F64F5407459
:100B800004D25FEA4E0E6D4146EB060642EAC621EC
:100B900041EA55514FEAC52040EA5E504FEACE2E59
:100BA000B4F1FD0C88BFBCF5E06F1ED8BEF1004F5C
:100BB00008BF5FEA500E50F1000041EB045170BDD8
:100BC00006F0004646EA010140EA020081EA03011C
:100BD000B4EB5C04C2BFD4EB0C0541EA045170BD18
:100BE00041F480114FF0000E013C00F3AB8014F192
:100BF000360FDEBF002001F0004170BDC4F10004DB
:100C0000203C35DA0C341BDC04F11404C4F120055B
:100C100000FA05F320FA04F001FA05F240EA0200B6
:100C200001F0004221F0004110EBD37021FA04F6EC
:100C300042EB06015EEA430E08BF20EAD37070BDA6
:100C4000C4F10C04C4F1200500FA04F320FA05F005
:100C500001FA04F240EA020001F0004110EBD37007
:100C600041F100015EEA430E08BF20EAD37070BD77
:100C7000C4F1200500FA05F24EEA020E20FA04F350
:100C800001FA05F243EA020321FA04F001F00041FF
:100C900021FA04F220EA020000EBD3705EEA430E70
:100CA00008BF20EAD37070BD94F0000F0FD101F09F
:100CB0000046400041EB010111F4801F08BF013CD8
:100CC000F7D041EA060195F0000F18BF704703F016
:100CD0000046520043EB030313F4801F08BF013D9D
:100CE000F7D043EA0603704794EA0C0F0CEA135559
:100CF00018BF95EA0C0F0CD050EA410618BF52EA13
:100D00004306D1D181EA030101F000414FF0000018
:100D100070BD50EA410606BF1046194652EA430626
:100D200019D094EA0C0F02D150EA013613D195EA9A
:100D30000C0F05D152EA03361CBF104619460AD1E2
:100D400081EA030101F0004141F0FE4141F47001EC
:100D50004FF0000070BD41F0FE4141F4780170BDDC
:100D600070B54FF0FF0C4CF4E06C1CEA11541DBF41
:100D70001CEA135594EA0C0F95EA0C0F00F0A7F843
:100D8000A4EB050481EA030E52EA03354FEA013170
:100D900000F088804FEA03334FF0805545EA131383
:100DA00043EA12634FEA022245EA111545EA10654B
:100DB0004FEA00260EF000419D4208BF964244F1E2
:100DC000FD0404F5407402D25B084FEA3202B61A01
:100DD00065EB03055B084FEA32024FF480104FF4D5
:100DE000002CB6EB020E75EB030E22BFB61A754649
:100DF00040EA0C005B084FEA3202B6EB020E75EBDC
:100E0000030E22BFB61A754640EA5C005B084FEA43
:100E10003202B6EB020E75EB030E22BFB61A754610
:100E200040EA9C005B084FEA3202B6EB020E75EB1B
:100E3000030E22BFB61A754640EADC0055EA060EDC
:100E400018D04FEA051545EA16754FEA06164FEA1F
:100E5000C30343EA52734FEAC2025FEA1C1CC0D1CB
:100E600011F4801F0BD141EA00014FF000004FF058
:100E7000004CB6E711F4801F04BF01430020B4F119
:100E8000FD0C88BFBCF5E06F3FF6AFAEB5EB030CD1
:100E900004BFB6EB020C5FEA500C50F1000041EBCE
:100EA000045170BD0EF0004E4EEA113114EB5C049B
:100EB000C2BFD4EB0C0541EA045170BD41F480116E
:100EC0004FF0000E013C90E645EA060E8DE60CEA76
:100ED000135594EA0C0F08BF95EA0C0F3FF43BAF93
:100EE00094EA0C0F0AD150EA01347FF434AF95EA4A
:100EF0000C0F7FF425AF104619462CE795EA0C0F2E
:100F000006D152EA03353FF4FDAE1046194622E7FA
:100F100050EA410618BF52EA43067FF4C5AE50EAD4
:100F200041047FF40DAF52EA43057FF4EBAE12E7C4
:100F30004FF0FF3C06E000BF4FF0010C02E000BFA5
:100F40004FF0010C4DF804CD4FEA410C7FEA6C5C88
:100F50004FEA430C18BF7FEA6C5C1BD001B050EA2B
:100F6000410C0CBF52EA430C91EA030F02BF90EA16
:100F7000020F0020704710F1000F91EA030F58BFD5
:100F8000994208BF90422CBFD8176FEAE37040F037
:100F9000010070474FEA410C7FEA6C5C02D150EAD5
:100FA000013C07D14FEA430C7FEA6C5CD6D152EA90
:100FB000033CD3D05DF8040B704700BF8446104655
:100FC00062468C461946634600E000BF01B5FFF754
:100FD000B7FF002848BF10F1000F01BD4DF808ED24
:100FE000FFF7F4FF0CBF012000205DF808FB00BFF5
:100FF0004DF808EDFFF7EAFF34BF012000205DF84F
:1010000008FB00BF4DF808EDFFF7E0FF94BF01209B
:1010100000205DF808FB00BF4DF808EDFFF7CEFF9C
:1010200094BF012000205DF808FB00BF4DF808EDDB
:10103000FFF7C4FF34BF012000205DF808FB00BFAC
:101040004FEA410C7FEA6C5C02D150EA013C0AD1C4
:101050004FEA430C7FEA6C5C02D152EA033C02D1B6
:101060004FF0000070474FF0010070474FEA410217
:1010700012F5001215D211D56FF47873B3EB6252EA
:1010800012D94FEAC12343F0004343EA505311F011
:10109000004F23FA02F018BF404270474FF00000A3
:1010A000704750EA013005D111F0004008BF6FF0E1
:1010B000004070474FF00000704700BF80F00040D4
:1010C00002E000BF81F0004142001FBF5FEA410320
:1010D00092EA030F7FEA226C7FEA236C6AD04FEA20
:1010E0001262D2EB1363C1BFD21841404840414065
:1010F000B8BF5B42192B88BF704710F0004F40F417
:10110000000020F07F4018BF404211F0004F41F432
:10111000000121F07F4118BF494292EA030F3FD0FE
:10112000A2F1010241FA03FC10EB0C00C3F1200311
:1011300001FA03F100F0004302D5494260EB4000A0
:10114000B0F5000F13D3B0F1807F06D340084FEA0B
:10115000310102F10102FE2A51D2B1F1004F40EB00
:10116000C25008BF20F0010040EA03007047490068
:1011700040EB0000013A28BFB0F5000FEDD2B0FA05
:1011800080FCACF1080CB2EB0C0200FA0CF0AABF28
:1011900000EBC25052421843BCBFD04018437047C6
:1011A00092F0000F81F4000106BF80F400000132CC
:1011B000013BB5E74FEA41037FEA226C18BF7FEAA3
:1011C000236C21D092EA030F04D092F0000F08BFE5
:1011D0000846704790EA010F1CBF0020704712F0CC
:1011E0007F4F04D1400028BF40F00040704712F10B
:1011F00000723CBF00F50000704700F0004343F070
:10120000FE4040F4000070477FEA226216BF0846A5
:101210007FEA23630146420206BF5FEA412390EA68
:10122000010F40F4800070474FF0000304E000BF5E
:1012300010F0004348BF40425FEA000C08BF70470F
:1012400043F0964301464FF000001CE050EA0102D3
:1012500008BF70474FF000030AE000BF50EA0102E8
:1012600008BF704711F0004302D5404261EB4101D5
:101270005FEA010C02BF84460146002043F0B643FA
:1012800008BFA3F18053A3F50003BCFA8CF2083A1F
:10129000A3EBC25310DB01FA02FC634400FA02FC28
:1012A000C2F12002BCF1004F20FA02F243EB02002F
:1012B00008BF20F00100704702F1200201FA02FC91
:1012C000C2F1200250EA4C0021FA02F243EB020084
:1012D00008BF20EADC7070474FF0FF0C1CEAD052C8
:1012E0001EBF1CEAD15392EA0C0F93EA0C0F6FD089
:1012F0001A4480EA010C400218BF5FEA41211ED067
:101300004FF0006343EA501043EA5111A0FB013152
:101310000CF00040B1F5000F3EBF490041EAD37127
:101320005B0040EA010062F17F02FD2A1DD8B3F1A3
:10133000004F40EBC25008BF20F00100704790F012
:10134000000F0CF0004C08BF49024CEA502040EA64
:1013500051207F3AC2BFD2F1FF0340EAC25070472A
:1013600040F400004FF00003013A5DDC12F1190F68
:10137000DCBF00F000407047C2F10002410021FADA
:1013800002F1C2F1200200FA02FC5FEA310040F1F2
:10139000000053EA4C0308BF20EADC70704792F06B
:1013A000000F00F0004C02BF400010F4000F013AA3
:1013B000F9D040EA0C0093F0000F01F0004C02BF9E
:1013C000490011F4000F013BF9D041EA0C018FE70D
:1013D0000CEAD15392EA0C0F18BF93EA0C0F0AD013
:1013E00030F0004C18BF31F0004CD8D180EA010039
:1013F00000F00040704790F0000F17BF90F0004FD2
:10140000084691F0000F91F0004F14D092EA0C0FB3
:1014100001D142020FD193EA0C0F03D14B0218BF46
:10142000084608D180EA010000F0004040F0FE408C
:1014300040F40000704740F0FE4040F44000704728
:101440004FF0FF0C1CEAD0521EBF1CEAD15392EAA7
:101450000C0F93EA0C0F69D0A2EB030280EA010C97
:1014600049024FEA402037D04FF0805343EA111130
:1014700043EA10130CF000408B4238BF5B0042F18E
:101480007D024FF4000C8B4224BF5B1A40EA0C0033
:10149000B3EB510F24BFA3EB510340EA5C00B3EB65
:1014A000910F24BFA3EB910340EA9C00B3EBD10F53
:1014B00024BFA3EBD10340EADC001B0118BF5FEAA5
:1014C0001C1CE0D1FD2A3FF650AF8B4240EBC250CE
:1014D00008BF20F0010070470CF0004C4CEA50208F
:1014E0007F32C2BFD2F1FF0340EAC250704740F4DE
:1014F00000004FF00003013A37E792F0000F00F0D0
:10150000004C02BF400010F4000F013AF9D040EA4D
:101510000C0093F0000F01F0004C02BF490011F4E1
:10152000000F013BF9D041EA0C0195E70CEAD153D9
:1015300092EA0C0F08D142027FF47DAF93EA0C0FC0
:101540007FF470AF084676E793EA0C0F04D14B02A4
:101550003FF44CAF08466EE730F0004C18BF31F056
:10156000004CCAD130F000427FF45CAF31F0004350
:101570007FF43CAF5FE700BF4FEA4002B2F1FE4F9D
:101580000FD34FF09E03B3EB12620DD94FEA002345
:1015900043F0004310F0004F23FA02F018BF40421E
:1015A00070474FF00000704712F1610F01D1420205
:1015B00005D110F0004008BF6FF0004070474FF0B9
:1015C000000070477BB972B90029BEBF00204FF000
:1015D000004106E008BF00281CBF6FF000414FF03B
:1015E000FF3000F057B8ADF1080C6DE904CE0029CA
:1015F00009DB002B1ADB00F062F8DDF804E0DDE91E
:10160000022304B07047404261EB4101002B1BDB19
:1016100000F055F8DDF804E0DDE9022304B04042B3
:1016200061EB4101524263EB43037047524263EB6B
:10163000430300F044F8DDF804E0DDE9022304B0E0
:10164000404261EB41017047524263EB430300F0BB
:1016500036F8DDF804E0DDE9022304B0524263EB22
:101660004303704753B94AB9002908BF00281CBF7B
:101670004FF0FF314FF0FF3000F00CB8ADF1080C27
:101680006DE904CE00F01BF8DDF804E0DDE902238B
:1016900004B07047704700BF430803F05533C01AC9
:1016A00000F03333800800F03330184400EB1010A2
:1016B0004FF0013300F00F305843000E70472DE912
:1016C000F04786468C460846089E154674461946DD
:1016D000002B40F0C2808542B2FA82F245D94AB16D
:1016E000C2F1200300FA02FC2EFA03F3954043EA0C
:1016F0000C0C94404FEA154EA8B2BCFBFEF8230C2C
:101700000EFB18CC08FB00F943EA0C43994528D995
:10171000EB1808F1FF3704D2994502D9A8F1020766
:101720002B44A3EB0903A4B2B3FBFEFC0EFB1C335A
:101730000CFB00F044EA0344A04214D92C190CF12C
:10174000FF3304D2A04202D9ACF102032C44241A84
:1017500043EA07401EB1D440002334607360BDE803
:10176000F0874746DDE76346F1E792BB431B012163
:101770004FEA154EAFB2B3FBFEFC200C0EFB1C3340
:101780000CFB07F840EA0343984562D9EB180CF1CB
:10179000FF3004D2984502D9ACF102002B44A3EBF0
:1017A0000803A4B2B3FBFEFC0EFB1C330CFB07F7D3
:1017B00044EA0344A7424ED92C190CF1FF3304D25A
:1017C000A74202D9ACF102032C44E41B43EA0040D7
:1017D000C0E7C2F1200320FA03F1954090402EFAB1
:1017E00003F303434FEA154EAFB2B1FBFEFC0EFB11
:1017F0001C10190C0CFB07F841EA0041884504FA5B
:1018000002F422D969180CF1FF3004D2884502D9BC
:10181000ACF102002944A1EB08019BB2B1FBFEFC34
:101820000EFB1C110CFB07F743EA01439F420ED944
:10183000EB180CF1FF3104D29F4202D9ACF1020146
:101840002B44DB1B41EA004192E76046E3E7614637
:10185000F7E76046A3E76346B7E7834206D916B9C0
:10186000002108467BE7C6E900E0F9E7B3FA83F711
:101870008FB9834201D3724508D8BEEB020460EBF6
:10188000030301209C461EB9002168E73846FAE7A9
:10189000C6E9004CF8E7C7F1200CBB4022FA0CF473
:1018A0001C432EFA0CF120FA0CF3B84001434FEA26
:1018B00014490EFA07F5B3FBF9F81FFA84FE09FB89
:1018C00018300B0C08FB0EFA43EA00439A4502FA63
:1018D00007F240D9E31808F1FF3004D29A4502D943
:1018E000A8F102002344A3EB0A0389B2B3FBF9F881
:1018F00009FB183308FB0EFE41EA03418E452CD943
:10190000611808F1FF3304D28E4502D9A8F1020311
:10191000214443EA0040A0FB0298A1EB0E0141459F
:10192000CE46434602D306D14D4504D2B9EB020E52
:1019300068EB04030138002EA6D0B5EB0E0261EB74
:10194000030101FA0CFC22FA07F34CEA0303F94005
:10195000C6E9003198E74046C5E74346D9E70000AD
:101960002DE9F04F4A4F8BB001F008F93B6803F0C6
:101970000703022B04D9474A0321384610F022FC02
:101980004FF0FF3344484FF0FF3208F0C9FF434B9C
:101990001B78002BF4D0424B1B884FF47A7513FB55
:1019A00005F340F6FF7293FBF2F303932B44049389
:1019B000DFF8F090D9F80830059308AA5B68012198
:1019C00048469847031E1ADBDDE908430693364B69
:1019D000069ADFF8D8A0A4FB03B603FB02663146E3
:1019E00029A3D3E900235846FFF73CFE4FF0FF3808
:1019F000D8457AEB060607900AD26FF085033A685D
:101A00005207BDD02A4A2248012110F0E4FB22E00F
:101A1000049B5D43069BA5FB046405FB0344214630
:101A200019A3D3E900233046FFF71CFEB0457AEB3B
:101A300004040346E1D3079A824202D26FF01503F1
:101A4000DDE700220092059A01211468079A4846B2
:101A5000A047031ED3DB3B6803F00703022B8FD99B
:101A60000398FFF7E1FB1349FFF7EAFC1249FFF780
:101A700033FCFFF781FD049B0090104A04480321CA
:101A800010F0B3FB7CE700BF00CA9A3B00000000E7
:101A9000140A0020066301089C0A00206622002028
:101AA00090090020A44C0108002D3101FFC99A3B88
:101AB0003E63010800007A440000F0424D630108D3
:101AC0002DE9F047044688B08846174612F09FFE7D
:101AD0000A220023FFF7C6FDB8F1010F06460D46A6
:101AE00007D102460B462046274910F003FE00208E
:101AF00011E07F6825483946FEF7F6FB70B12448AF
:101B00003946FEF7F1FB48B1204622493A4610F02B
:101B10000DFE6FF0040008B0BDE8F087304629469E
:101B200017A3D3E90023FFF74DFD06460D461046E7
:101B30001946194A0023FFF745FD80460F46104617
:101B400019464EF660220023FFF73CFD8246894687
:101B5000104619464FF47A720023FFF733FDCDE9A2
:101B600002A9CDE90623CDE90401CDE900870B499F
:101B700032462B46204610F0BDFDB8E7AFF300809B
:101B8000005C260500000000C2680108D368010857
:101B9000D6680108DF68010880EE3600F7680108A2
:101BA0002DE9F04F016C9FB016461F46CDE9046742
:101BB0002B9D039049B1426C4A6001239340044637
:101BC0008B600DF0DDFA00232364B7F10009B4BF88
:101BD000012300232B60764BBCBF29F00049CDF8D0
:101BE000149033EA090300F0AA80DDE904340022EE
:101BF000184621460023CDE90801FFF7EFF980469A
:101C000068B12A9A012313602C9B13B12C9A694B5B
:101C10001360694B0A930A981FB0BDE8F08F1CABA4
:101C200001931DAB00930398DDE908230DF0DCFD63
:101C30005FEA1955824640F09880DDE91C854544ED
:101C400005F23243202B40F38383C3F1400309FAAA
:101C500003F905F2124326FA03F349EA0300FEF7FB
:101C6000DBFE0123013DA1F1F8711193534B0022DA
:101C7000FEF794FD48A3D3E90023FEF747FF48A3EE
:101C8000D3E90023FEF78CFD064628460F46FEF7F3
:101C9000D3FE45A3D3E90023FEF738FF02460B46E7
:101CA00030463946FEF77CFD06460F46FFF7DEF963
:101CB00000228346002330463946FFF799F9002871
:101CC00040F01A83A8EB0508BBF1160F08F1FF34AA
:101CD00000F28B813A4D05EBCB05D5E90023DDE918
:101CE0000801FFF785F9002870D00023002C0BF1C4
:101CF000FF3B1093C0F27E8100230B93BBF1000FDA
:101D00006ADA0B9BA3EB0B030B93CBF10003CDE93A
:101D10000EB3289B092B4FF0000B65D8052B40F321
:101D20001C83043B28930025289B023B032B00F2D5
:101D30002386DFE813F060045D04540438042A9A13
:101D4000C9F3130942F20F7359EA060913601CD153
:101D50002C9B002B00F02B861A4B0A9308332C9AED
:101D60000A9813601FB0BDE8F08FDDE90812C2F3D6
:101D70001303084643F07F51CDF84480A5F2FF35A8
:101D8000DDF8708041F4401170E72C9B002B40F08F
:101D9000E7830D4B0A933EE761436F63A787D23F0A
:101DA000B3C8608B288AC63FFB799F501344D33F4A
:101DB0000000F07F39600108386001080000F83F3A
:101DC000005401085C60010868600108B8F1000F68
:101DD00040F3608410900B9000230F93289BCDF864
:101DE00038B0092B5C4499D90023CDE9283301256B
:101DF0004FF0FF330C950693039B00215964069B1B
:101E0000189303980DF096F90A90002800F0BD850C
:101E1000039B0A9A1A64069B0E2B00F21581002D73
:101E200000F012810E9A002A40F33B84B24D02F07A
:101E30000F0305EBC303D3E9008913461511DA0537
:101E400040F1FA83AD4BDDE90801D3E90823FEF741
:101E500087FFCDE9120105F00F0503277DB1A74EDD
:101E6000EB0708D540464946D6E90023FEF74EFE6B
:101E70000137804689466D1006F10806F0D14246CA
:101E80004B46DDE91201FEF76BFF80468946109B49
:101E900043B19B4B002240464946FFF7A9F8002872
:101EA00040F0F1843846FEF7C7FD42464B46FEF748
:101EB0002DFE944B0022FEF773FC069B0646A1F113
:101EC0005077002B00F0A9800E9B1993069B12936C
:101ED0000A9B894D49464046CDE914675E1CFFF7D1
:101EE000C5F8129905EBC10353E902120746CDE983
:101EF0001612FEF7A1FD02460B4640464946FEF784
:101F00004DFC89460C993037DDE916238046FFB237
:101F1000002900F053847C490020FEF721FFDDE911
:101F20001423FEF73BFC0A9D02460B46CDE9142321
:101F30002F7042464B46FFF779F8002840F097840F
:101F4000CDE91AB4CDF858A0129DDDE914AB0027F5
:101F50002AE00137AF4280F2DE846C4B504659468E
:101F60000022FEF7D3FD694B002282468B46404695
:101F70004946FEF7CBFD89468046FFF777F80446D1
:101F8000FEF75AFD02460B4640464946FEF706FC60
:101F9000303406F8014B52465B4680468946FFF7CF
:101FA00027F8002840F0B48442464B4654490020AC
:101FB000FEF7F4FB52465B46FFF71AF80028C8D03C
:101FC000199BDDF858A00A9A374603F1010802E090
:101FD000974200F07C843E4617F8013D392BF7D03C
:101FE0000133DBB23B70454675E10123002C1093B1
:101FF000BFF682AEC8F101030B9300247EE638469B
:10200000FEF71AFD42464B46FEF780FD3D4B00228F
:10201000FEF7C6FB0646A1F150773D4B40464946C8
:102020000022FEF7BBFB32463B4680468946FEF760
:10203000FDFF002840F05A8440464946324607F1E9
:102040000043FEF7D5FF28BB1D9B002BC0F29280FA
:102050000E9A0E2A00F38E80274D0E9B05EBC305CA
:10206000D5E90034CDE90434299B002B19DA069B0D
:10207000002B16DC0ED1264B0022DDE90401FEF711
:1020800045FD02460B46DDE90801FEF7BBFF0028CF
:1020900000F02C844FF000090A9E4F46299BDD4337
:1020A00025E2DDE90445DDE9088922462B46404664
:1020B0004946FEF755FEFEF7D9FF0646FEF7BCFC83
:1020C00022462B46FEF722FD0A9F0B460246494652
:1020D0004046FEF763FB06F1300307F8013B069B21
:1020E000012B00F012830125CDF818A09946DDE9F7
:1020F00004ABA8462CE000BF00540108D8530108E7
:102100000000F03F00001C400000E03F00002440C1
:102110000000144052465B4620462946FEF720FE4A
:10212000FEF7A4FF0646FEF787FC52465B46FEF725
:10213000EDFC08F101080B46024629462046FEF751
:102140002DFB06F13003C84507F8013B00F0DB82A8
:10215000B94B0022FEF7DAFC0022002304460D46AC
:10216000FEF73CFF0028D5D00E9DDDF818A0013504
:102170003E46B0E00C9A002A40F0D28000230F9D2A
:102180000B9E0C931F4656B1002C08DDA6420B9AFD
:102190003346A8BF2346D21A0B92F61AE41A0F9BB5
:1021A00053B10C9B13B1002D40F0E88251460F9AB9
:1021B00003980DF075F98246039801210DF08CF813
:1021C0008146BBF1000F40F0B681289B012B40F304
:1021D000CC810120204410F01F0000F09A80C0F153
:1021E0002003042B40F3DA810B9BC0F11C00034455
:1021F0000B93064404440B9B002B05DD51460398CA
:102200001A460DF0A7F98246002C05DD49460398D1
:1022100022460DF09FF98146109B002B40F0708103
:10222000069B002B40F348810C9B002B40F0A480C0
:102230000E9D0135DDF82880069CDDF80CB00126E6
:1022400007E0514600230A2258460CF0A3FF01364E
:102250008246494650460CF087FDA64200F1300305
:1022600008F8013BEDDB069A002AC8BF16460A9A19
:10227000D8BF012602EB060B002451460122039829
:1022800004930DF067F9494682460DF0DBF900280A
:1022900040F3E3810A9A02E05A4500F0E9815E4684
:1022A0000BF1FF3B16F8013C392BF5D001338BF8CD
:1022B0000030DDF80C80494640460CF061FF57B114
:1022C0002CB1BC4203D0214640460CF059FF039884
:1022D00039460CF055FF039851460CF051FF00238E
:1022E00033702A9B1D602C9B002B3FF494AC0A9802
:1022F0001E601FB0BDE8F08F5846FEF79DFB3246CA
:102300003B46FEF76BFE00287FF4DCAC0BF1FF3B95
:10231000D8E41C230B9A1A440B921E441C446AE70F
:10232000289A012A40F3A981069A0F9B551EAB42B9
:10233000C0F26B81002AA3EB050580F2DD820B9BC6
:10234000069A9E1A039801210CF0C6FF07461AE769
:10235000C3F1200306FA03F081E40125E4E43946E1
:10236000002303980A220CF015FF189B002B074648
:1023700040F3EF820E950693002E00F33F81BBF1F0
:10238000000F40F0DF81B8460A9E069C731E1C4475
:10239000049B0C9403F00103039C0F9349465046A1
:1023A0000CF0E2FC3946834650460DF04BF94246AC
:1023B0004946054620460DF065F9C26801460BF115
:1023C0003003002A3AD1089050460B930DF03AF9A9
:1023D0000899069020460CF0D3FE069A0B9B002A23
:1023E0005AD1289A1AB90F9A002A00F09A82002D21
:1023F00045DB0C9AB346B2420BF8013B00F0B981C1
:10240000514600230A2220460CF0C4FE474582466E
:1024100039464FF000034FF00A02204636D00CF048
:10242000B9FE4146074600230A2220460CF0B2FEC0
:102430005E468046B2E700BF000024400398069342
:102440000CF09EFE002D069B06DB049A289902F0F4
:1024500001020D432A432AD15146012203980493D5
:102460000DF078F8494682460DF0ECF80028049B00
:1024700040F3E880392B00F02F820BF131030E9DE1
:1024800006F8013B3C460135474612E70CF082FE58
:102490005E460746804681E7002DC0F27D8228997E
:1024A0000D430F990D4300F07782002AA1DD392BEF
:1024B00000F012820133E2E7289B022B7FF7B4AED3
:1024C000069B002B40F01D814946052203980CF025
:1024D00061FE0146814650460DF0B4F8002840F3F5
:1024E00010810A9E0E9D312306F8013B01350398A9
:1024F000494601350CF044FE002F7FF4E8AEEAE6D1
:10250000494650460DF09EF80028BFF689AE514668
:10251000002303980A220CF03DFE0E9B5D1E0C9BCF
:102520008246002B7FF41BAF189B002B40F3FF81EA
:102530000E9D06937EE601465A4603980CF0B0FFC6
:10254000289B012B81466CDD4FF0000BD9F8103031
:1025500009EB830318690CF06DFEC0F1200039E629
:10256000924B0A930333FFF7FABB049B002B7FF4D3
:1025700030AEDDE90412C2F31303002B7FF429AE61
:102580008B4B134023B10B9B01330B93013401237D
:10259000BBF1000F40F0AE819B461AE63FF42BAE34
:1025A000C0F13C03B6E601230C93299B0E9A134419
:1025B00018930133012B1E460693B8BF0126172E30
:1025C00040F3D581012204235B0003F11400B042E3
:1025D000114602F10102F7D9039B596411E401236A
:1025E0000C93299B002B33DD189306931E46E6E7D8
:1025F00000230C93D9E700230C93F2E739460398A4
:1026000032460CF0A7FF0746B9E60F9B069A0F95D6
:10261000EB1A9B440B9B1E46134414440B9300255A
:1026200090E6049B002B8FD1DDE90401C1F3130375
:102630000A46002B88D1A3E7DDE908230227CDE96C
:1026400012230BE47FF41BAFDA077FF518AF11E715
:10265000012329930693FFF7CFBB03D1049BDB072C
:102660003FF518AE5E461BF8013D302BFAD020E650
:102670000A9A3123013513701BE6119A002A00F0E3
:10268000F98003F233430B9A0F9D16461A441C44FB
:102690000B9257E6C8F1010304460B931090FFF725
:1026A0009BBB00F0EB800E9B424D5E4206F00F0399
:1026B00005EBC303D3E90023DDE90801FEF726FAA1
:1026C0003511CDE9120100F04D813B4E0023022768
:1026D00080468946E80709D5D6E9002340464946A1
:1026E000FEF714FA01378046894601236D1006F182
:1026F0000806EFD1002B7FF4CAABDDE91289FFF7A2
:10270000C6BB0A9ECAE4DDF818A00E9D02460B4621
:10271000FEF746F802460B46CDE906230135DDE912
:102720000423A846FEF782FC40B9DDE90423DDE975
:102730000601FEF753FC18B1F10701D50A9A4AE4E5
:102740003E46C8E5796803980CF0F4FC054600287D
:1027500000F026813B6902339A0007F10C010C302E
:10276000FDF77EFF0398294601220CF0F3FE804618
:102770000AE60E9D3C46013547467EE5DDF80C80B5
:1027800039462A4640460CF08BFE52460146074623
:1027900040460CF0CFFD5146824640460CF0F0FC1E
:1027A0000F9B5B1B0F933FF407ADFFE468600108CC
:1027B0000000F07F00540108D8530108DDE914013E
:1027C000FEF7A4F90A9B1F70129B012BCDE90C01A7
:1027D00000F0C680129F0A9BCDF844B01F447C4B8A
:1027E000002240464946FEF791F989468046FEF7A9
:1027F0003DFC8346FEF720F90BF1300B02460B46F9
:1028000040464946FDF7CAFF06F801BBB74280467D
:102810008946E4D1DDF844B06E4B0022DDE90C01BD
:10282000FDF7BEFF02460B4640464946FEF7FEFB5B
:10283000002867D1DDE90C2366490020FDF7AEFFD3
:1028400002460B4640464946FEF7D2FB48B91D9B5F
:10285000002BFFF693AC0E9B0E2B3FF78FACFFF7D0
:10286000FCBB3E46013F16F8013C302BF9D0199DC8
:10287000013530E51C9BC3F1360304E7DDE9088927
:102880000227FFF704BB069B002B3FF4B8AB189B55
:10289000002B7FF7D9AB0E9A1293013A4C4B199249
:1028A000404600224946FEF731F980468946781CA9
:1028B000FEF7C2F842464B46FEF728F9464B002287
:1028C000FDF76EFF0646A1F15077FFF701BB08F157
:1028D00001083123FFF786BB0E9D0A9AB3463923C0
:1028E0003C460BF8013B01354746D8E44FF0000960
:1028F0004F46F6E59B4629E60B9B1E4613441444BF
:102900000B931FE5199B0A9A03F10108FFF763BBBC
:10291000DDF858A0ABE7DDE91AB4DDF858A0FFF701
:1029200093BB392BD8D0002D3FF7A7ADA7E5289B47
:10293000022B0ADC189B069349460E9D0CF014FAF4
:102940000A9A00F1300313708DE4189B06930E95DC
:10295000B6E5289B022BF8DC189B0E9506930BE539
:10296000374659E7DDE912890227FFF790BA039B42
:1029700000215964FFF745BA039B00255D64294691
:1029800018460CF0D7FB0A90A8B9144B1448002243
:102990004FF4D5710DF042F8002A7FF770AD5BE57A
:1029A0000E4B0F482A4640F2EA210DF037F80D4B46
:1029B0000A93FFF730B9039B0A9A1A644FF0FF336A
:1029C0000122299518930C920693FFF73DBB00BF97
:1029D000000024400000E03F00001C406C60010843
:1029E000806001085C600108074B10B59C680648D0
:1029F000636920219847002805DB002142F210700E
:102A000011F05EFEF3E710BD244C01080548036891
:102A100003F00703022B03D9034A03210FF0D2BBB3
:102A2000704700BF140A0020F4610108094A1378B6
:102A300083F0010313700BB1FFF7E8BF064803688A
:102A400003F00703022B03D9044A03210FF0BABB9A
:102A5000704700BF66220020140A002004620108AB
:102A6000F8B500AF2A4C204611F047FC0346B8B930
:102A700028480268550711D021686C4688B06A461C
:102A8000254DC2E905514FF400719183234942F865
:102A9000101F4FF4E25101F0CDFFA546BD46F8BD31
:102AA0001F484FF480310EF05AFD034640B11948DB
:102AB00002685107F2D01B4A01210FF08CFBEDE7B1
:102AC000A5682369AE69DEB11B6813F4005F14BF0B
:102AD0004FF000734FF080634FF0A0720D2120463D
:102AE000B047034670B91049104B4B604FF4005388
:102AF0008B60EB69002BD1D0012220469847CDE7AF
:102B00006FF05703034802685207C7D0084AD3E75B
:102B1000E44B0108140A00201762010803000001B9
:102B2000D054010838620108A41D00202D2A000895
:102B30006662010808B50D48036803F00703022B1D
:102B400003D90B4A03210FF03DFB0A4811F0D5FBD6
:102B500050B109484FF4D0110EF001FD002803DBFD
:102B6000BDE80840FFF740BF08BD00BF140A0020C1
:102B70009D620108244C0108C8540108B0B51F4CDF
:102B80001F4884B002AF206011F0B7FB0346E0B9E4
:102B90001C480268520712D022686C4688B011683F
:102BA00002AA194DC2E905514FF4007191831749EA
:102BB00042F8101F4FF4E25101F03CFFA5464FF0E0
:102BC000FF3420460837BD46B0BD40F20943012519
:102BD00020683B60BD80836839461B689847041EA7
:102BE0000ADA084803685B07EBD0094A00942B46D1
:102BF00029460FF0FAFAE4E70024E2E7A01D0020DE
:102C0000844C0108140A0020B3620108030000018B
:102C1000D862010830B587B0114D1422002101A8F7
:102C200009F06CFD0223CDE9035302930C238DF8C8
:102C300014300C4B1868836801A95B689847041E20
:102C40000BDA094803685B0704D0084A23460121D0
:102C50000FF0C1FA20B207B030BDB5F90000FAE7B5
:102C600064220020A01D0020140A002066630108D1
:102C700008B5C82200230C4808F018F8FFF7CAFF6F
:102C80000A4B0B4A1B786BB1B2F90030C31A002B08
:102C9000B8BF5B421E2B06DD10800648BDE8084029
:102CA00007F00ABE108008BD000000206622002048
:102CB000900900209C0A002098B51148036803F091
:102CC0000703022B00AF12D96C4688B06A460D4B41
:102CD00053610D4B93614FF4007393830B4B42F898
:102CE000103F00234FF4E65101F0A4FEA546C82290
:102CF0000023074807F0A6FF0020BD4698BD00BF8F
:102D0000140A00208763010897630108030000018B
:102D10000000002013B5064904460FF0EBFC0548FF
:102D2000019401A908F04EFD002002B010BD00BFC3
:102D3000E06301087D2E000813B5064904460FF034
:102D4000D9FC0548019401A908F03CFD002002B01F
:102D500010BD00BFFC630108252E000813B506490D
:102D600004460FF0C7FC0548019401A908F02AFDAC
:102D7000002002B010BD00BF1B640108812D0008B7
:102D8000F0B5054687B00F6811F09BFB6B7B082BF5
:102D900096BF0F4A0F4E52F82360044605A92846F5
:102DA00011F09DFB0C4BE989002C08BF1C4695F9DE
:102DB0000E3050B9059A0091CDE9016207492246CB
:102DC00038460FF097FC07B0F0BD0022F3E700BFD4
:102DD000D85401084A640108526401085B64010880
:102DE00010B50C4904460FF085FC20460A494FF403
:102DF00080520FF07FFC402008F0F6FF38B111F050
:102E000015FE064920460FF075FC002010BD044950
:102E1000F8E700BFA9640108C9640108E864010873
:102E200002650108F0B58BB00F6804A9044611F0E3
:102E30005DFBE0B9204611F044FBDDE90456044691
:102E400015F1A9004FF0AA024FF0000346F100016E
:102E5000FEF708FC074BCDE90001CDE90256064913
:102E6000002C14BF22461A4638460FF043FC0BB024
:102E7000F0BD00BF52640108216501087FB5054619
:102E80000E6811F01EFB044603A9284611F027FB2B
:102E9000094B697B002C08BF1C4695F90E3048B9D8
:102EA000039ACDE900123046044922460FF022FC75
:102EB00004B070BD0022F4E7526401084C650108BB
:102EC0002DE9F04F91B08407009302F004030293C0
:102ED000C2F3C20303F10103DDF8688003920546E3
:102EE0000E46059340F0BA81041D30B1072909D878
:102EF0006FF01B0011B0BDE8F08F01F007063444FD
:102F0000C6F10806009B4FF00009591E4FF0040A55
:102F10004FF0FF330193CDF810904F46CB46534608
:102F20000DB1009A22600598002800F3E8809848C7
:102F3000009A824203D397488242C0F0E080039A0D
:102F4000A4EB050E92074FEA9E0000F103810F2FBC
:102F500000F2B180002D00F0058107F140020DEB79
:102F6000020C019A0CF8200C0CF8102C049801307B
:102F70000490E7E07A285DD84B280ED8472859D826
:102F800029282DD8252852D054D820287AD0233863
:102F9000D0F1000B4BEB000B74E04C382E2849D8D5
:102FA000DFE800F0704848484848484848484848E2
:102FB0004B484848484848484859484B4B59595944
:102FC000704B6D487048184B184848827F4B4848F2
:102FD0004B487F0000204FF0000B4FF0040A38E010
:102FE0002A38C0B2012202FA00F010EA0E0F49D1CD
:102FF00010F0625C2FD110EA020B43D06046013C16
:103000005444B4FBFAF40AFB04F4002D61D0A3EBA2
:10301000050CA444B4453FF66BAF002868D1042BDF
:1030200047D158F8043B2360043404232AE0019A72
:10303000013A01924FF0000B24E011F8010C6C28CA
:1030400034D111F8023C00206C2B8346C5D14FF0DF
:10305000080A5346D3E708F1070828F007080734A1
:10306000F8E802AB24F0070435B106982044B042DA
:103070003FF63EAFC4E900AB08344FF0000B4FF011
:10308000080A534611F8010F002878D0BBF1000F51
:103090007FF470AF2528F5D1019B013301934FF0E8
:1030A000010B4FF0040AECE7584694E700208346F2
:1030B000A5E7082B02D06FF015001BE708F1070801
:1030C00028F00708F8E80223C4E90023083408239D
:1030D000D8E768B9042B02D108F10408A4E7082B4B
:1030E000E9D108F1070828F0070808F10808EDE71A
:1030F000059A013A059258F8042B009210E7039ABA
:10310000900720D5A4EB050E4FEA9E004FF0010C6E
:10311000BEF5007FCFD20F2FCDD8F5B107F1400219
:103120000DEB020EC0B2019A0EF8200C0EF8102C16
:10313000BCF1000F3FF41AAF60F07F000EF8200CD6
:1031400009F101090137C5F10802043406924FF66E
:10315000DA7E97E74FF0000CDAE7BCF1000F01D000
:103160000136EFE7029802360028EBD10098CDE94E
:103170000631FDF745F8DDE906310644E2E7631B59
:10318000B3F5806F97D23DB9A6F10804E018B1E617
:10319000444A0108C8870108029A28609B082B70DE
:1031A0009DF81030C2B1EB7085F80290B9F1000FB4
:1031B00005D008A80022C5F1010C97420ED1C5F137
:1031C00001030DF120084FF0000A01930DF1300BBF
:1031D000574512D1601B8DE66B70E5E710F8013B97
:1031E000190608D50CEB040EB64503F07F033FF635
:1031F0007FAE04F8013B0132DFE7B9F1000F03D0E5
:1032000098F90020002A17DB029BD3B11AF80B2093
:1032100004F8012B0022019B18191044B0423FF61C
:1032200067AE98F8000004F8010B0099039220465D
:10323000FDF716FA039A14440AF1010A08F101088D
:10324000C6E798F8002055F822300093029B45F815
:1032500022300098FCF7D4FF421CDCE76FF00D0031
:1032600048E600BF2DE9F04F97B000AF90F802A0FC
:10327000D7F880B03B62CBF3C0030446FA62BB616F
:10328000894641B9457800780AEB800020444D45D5
:1032900017D8A0EB0409E378FB61BAF1000F02D064
:1032A0001BF0010F16D1FB6953BBFB6A1BB13A6AD5
:1032B0004946204698474D4628465C37BD46BDE8FE
:1032C000F08F461C3046FCF79BFF0130304409F17B
:1032D0000109DCE7237862687A62FA6A9900796109
:1032E00004EB8301002A40F004814D460E4601EBB9
:1032F0000A094FF000084E4550D101EB0A0610E0D4
:103300001BF0020FD1D023789A007A6162687A624A
:10331000FA6A04EB8301002A7BD14D4601EB0A06D1
:1033200090461BF0050F0CBF02230123FB62FB69D3
:1033300006EB430A0BF00203BB625645BCD016F8FD
:10334000021B16F8013C54F823909B4B994502D37D
:103350009A4B99453AD3BB69002B44D0786A0EF05A
:10336000B8FA00283FD09648036813F0060F13D030
:10337000E9468AB06A46934B53617B6AC2E90631DB
:103380004FF400731384904B42F8103F00234FF426
:10339000125101F04FFBCD46023DCEE716F8013B3E
:1033A000F96254F82300FCF72BFFD7F88430F96A50
:1033B00001304BB1D7F8883098453EBFD7F88430FC
:1033C00023F8180008F10108054494E7BB6923B10C
:1033D000786A0EF07EFA0028C5D11BF0010F05D1E6
:1033E000FB6AED1AA9E7BB6A002BA6D04846FCF79A
:1033F00007FFD7F8843053B1D7F8883098453FBFDE
:10340000D7F88420431C22F8183008F1010805443D
:1034100093E7BAF1000F72D01BF0040672D0D046C9
:10342000002607F1480052463B61B962FDF718F9E2
:10343000B96A3B6901EB0A02BA62FA69F96952009A
:10344000FA60BA6A02EB41023A610BF00202BA601A
:103450003A69B96A8A4257D162787A621BF0020FE0
:1034600032440CBF4FEA580100211BF0010FD2B2C9
:1034700040F09F801BF0040F14BF40460020BB614A
:103480006270A070E1703A6A7969FB6A20469847D9
:10349000051EFFF611AFBB6923707B6A6370FB6981
:1034A000E37041463A6AFB6A84F802A007F14800DB
:1034B0009847B0F10008C0F2BB807B693A6AA9EB7B
:1034C0000A01C91AFB68C91AD7E90A0398470028F4
:1034D000C0F2B080A84408EB00054FF0000B07F1E4
:1034E000380AB34572D300213A6AFB6A0846984706
:1034F000E2E656464FF0000807F1380093E75646DB
:10350000D04697E7B04695E7BA6A12F8021BBA624E
:1035100012F8015C284A54F82500904202D3274A49
:1035200090421ED3BA6932B1786A7B600EF0D1F94D
:103530007B6800288CD1BA6802BB08F1280207F129
:10354000300C08F10100944407F1580252FA80F05F
:1035500008F102080CF8101C5FFA88F800F8105CFB
:1035600076E7BA693AB1786A7B600EF0B2F97B68A7
:1035700000287FF46DAF1BF0010F09D006F128027F
:1035800007F13000711C161806F8205CCEB25FE718
:103590001BF0040F3FF45CAF08F1280207F1300084
:1035A00008F1010102EB000808F8105C5FFA81F8ED
:1035B0004EE7002063E700BF444A0108C8870108BE
:1035C000040A002061660108040000011BF80A30AB
:1035D00087F8373054F82390D7F884302BB3D7F8D6
:1035E00088309B4521D2D7F8843033F81B803A6A63
:1035F000FB6A012107F13700984700281ADB0544D0
:10360000B8F1000F06D14846FCF7FAFD00F10108B9
:103610001FFA88F83A6AFB6A4146484698470028EC
:1036200008DB05440BF1010B5BE74FF00008DEE718
:10363000454641E605463FE630B50446EFF31185C1
:10364000102383F31288BFF36F8F044B0FCB84E8F2
:103650000F0085F31188BFF36F8F30BD200D002060
:1036600001281FB50C4605D004281DD06FF01500A9
:1036700004B010BD11F0CBF842F210720023FDF738
:10368000F1FF104B5A43C4E90001A2606846FFF7FE
:10369000D3FF694620460EF041F918B90A4B0FCB0B
:1036A00084E80F000020E3E711F0B1F842F2107255
:1036B0000023FDF7D7FF034B5A43C4E90001A26082
:1036C000F0E700BFA08601007053010801287FB514
:1036D0000D462DD18A68184B9A4229D811F097F8D7
:1036E00042F210720023FDF7BDFF144B404261EB24
:1036F00041016C46CDE9000153432046029300F09E
:10370000CFFC294620460EF009F9EFF3118610236D
:1037100083F31288BFF36F8F94E80F00084D85E89C
:103720000F0086F31188BFF36F8F002004B070BDC7
:103730006FF01500FAE700BFFFC99A3B6079FEFF02
:10374000200D0020014B1860704700BF700700205B
:1037500030B587B00025CDE903010446009503A9E3
:103760000548059500F06EF8DDE904309842B8BFD1
:10377000255407B030BD00BF81190108F0B5094ECE
:10378000016802460A2700200B4601311C78355D8E
:103790006D0701D41360F0BD07FB0043A3F13000B7
:1037A000F2E700BFF55E01082DE9F84F15469A468D
:1037B000D378234A12F803B06F2B81460F460BF0E3
:1037C000030B2BD026D8582B0CBF10260A26DDF869
:1037D00028803246002348463946FDF743FF092A30
:1037E00008F1FF38D4B21ED83034B145E4B277F1D5
:1037F000000788F8004001D3D04511D82B789B06EC
:1038000005D5082E15D1AB7843F00803AB704046C0
:10381000BDE8F88F03F0F703702BD5E70826D6E74D
:1038200081460F46D5E7BBF1010F0CBF3734573443
:10383000DBE7102EEBD1AB7843F01003E6E700BFD7
:10384000F55E01082DE9F04F97B08A4603901646C1
:103850001C460025307808B9284656E325280AD0AA
:10386000039B514698470028C0F24F83731C0135D3
:103870000493049EEEE71822002110A808F03EFFF2
:103880007378252B00F0A3800023711C98469E4678
:103890009C4618460F4611F8012B2B2A00F0C680D3
:1038A00000F2BD80202A00F0C480232A00F0C480EA
:1038B0002BB19DF8483043F040038DF84830B8F103
:1038C000000F05D09DF8483043F020038DF84830B4
:1038D000BEF1000F05D09DF8483043F010038DF87D
:1038E0004830BCF1000F05D09DF8483043F0080384
:1038F0008DF8483028B19DF8483043F004038DF826
:1039000048309DF8483003F04401442903D16FF357
:1039100086138DF848309DF84830099743F08003AE
:103920002A2A8DF8483040F08C809DF8493043F0C9
:1039300001038DF849307B1C1A782E2A9DF8492006
:103940000CBF0121002161F341028DF849200CD107
:103950005A1C09925A782A2A40F083809DF84920FF
:1039600042F004028DF8492002331A786C2A00F0E4
:10397000A48000F28680682A00F08C806A2A00F019
:10398000A5804C2A00F0AA801A4612F8013B049246
:10399000782B9DF849208DF84B3000F217816D2B64
:1039A00000F2A980692B00F21181572B00F2BE8032
:1039B000412B03D0453B022B00F208819DF84A3091
:1039C000042262F302038DF84A300123CAE08DF825
:1039D0004B30B31C04939DF84930D90740F1FD806A
:1039E00054F8048BB8F1000F07DA9DF8482042F034
:1039F00004028DF84820C8F100085A0740F1F6800B
:103A000054F804BBBBF1000F80F2F5809DF84930FB
:103A10006FF341038DF849304FF0FF3BEBE02D2A67
:103A20000DD0302A7FF444AF012333E74FF0010C6F
:103A300030E74FF0010E2DE74FF001082AE7012093
:103A400028E709A8FFF79AFE099BBB423FF474AF31
:103A50009DF848201390C00F60F341028DF8482074
:103A60006AE709A8FFF78AFE9DF848301490C3F36F
:103A7000400242EAD07262F341038DF84830099B5C
:103A800073E7742A26D07A2A7FF47EAF9DF8492006
:103A900006210CE05A78682A9DF8492006D10121B8
:103AA00061F3C6028DF8492002336DE7022161F30C
:103AB000C6028DF84920013366E75A786C2A9DF8D2
:103AC000492001D10421EBE70321F0E79DF84920CB
:103AD0000521ECE79DF849200721E8E7BDF84820DB
:103AE00022F4F04222F0020242F4804242F002024A
:103AF000ADF84820DFE76E3BD9B201238B4040F29E
:103B000082410B4238D113F0240F52D1DF075DD52B
:103B10009DF84A30032161F302038DF84A3002F028
:103B20007803A3F14000434243411BE0A3F1580155
:103B3000C9B2012000FA01F111F4624F7FF43EAFE7
:103B400040F6010739421DD111F4043F3ED09DF8E3
:103B50004A3060F3020302F07802402A8DF84A30BE
:103B600034D000239DF84820C2F340010B4363F397
:103B700041028DF848202EE79DF84A30022161F37A
:103B80000203E8E79DF84A10022002F0780260F391
:103B90000201402A8DF84A1002BF9DF8481041F0FA
:103BA00001018DF84810632BDBD1131E18BF0123D0
:103BB000D8E79DF84A30032161F3020312F0780F31
:103BC0008DF84A3014BF01230023CBE79DF848301D
:103BD00043F001038DF84830C3E79DF94820002ADF
:103BE000B4BFDDF84C804FF0FF3806E79F077FF544
:103BF00013AFDDF850B09DF849100023CDE9133321
:103C00009DF84A3003F00703012BC1F3C30132D101
:103C1000CB1E042B04D8DFE803F02045452020000C
:103C2000236801294FEAE372CDE910321BD19DF9D7
:103C30004030DA17CDE9103204349DF8483013F0E3
:103C400003074FD0049B0398324651460DF0CEFE39
:103C50000028C0F25A8105440BE654F8043BDA17F9
:103C6000CDE91032E9E70229E6D11AB243F3C033B5
:103C7000CDE91023E0E7022B24D1CB1E042B04D87E
:103C8000DFE803F0181010181800012954F8043B5D
:103C90004FF0000214D00229CDE91032CDD19BB2F1
:103CA0001093CAE7073424F00704F4E80223CDE9AF
:103CB0001023C2E754F8043B109300231193BCE790
:103CC000DBB2CDE7042B08D1073424F00704D4E994
:103CD00000230834CDE91023AFE7032BADD154F80E
:103CE000043BDDE79DF84B0078283FF6C2AD622823
:103CF0001ED8252850D058287FF4BBAD0DF13E03C7
:103D00000093DDE910010AAB12AAFFF74DFDBBF1EC
:103D1000000F814680F2C280B9F1000F3FF4A9ADD7
:103D20000DF13E06A6EB0903002F7BD0013379E0AD
:103D3000633815283FF69DAD01A252F820F000BF70
:103D4000133E0008713E00087338000873380008FD
:103D50007338000873380008713E00087338000893
:103D6000733800087338000873380008BF3E000835
:103D7000973E0008D13D00087338000873380008EA
:103D8000A93D000873380008973E00087338000802
:103D900073380008973E0008039B51469847002857
:103DA000C0F2B380013564E5BBF1000FDDF840904F
:103DB0000ADB5946484608F091FEB9F1000F3FF47E
:103DC00058AD09EB000620E04846FCF719FAF8E781
:103DD0001098002800F087800DF13E060AAB00968F
:103DE00012AA0021FFF7E0FCBDF84A3003F0EF0310
:103DF00043F4F04343F01003BBF1000F8146ADF8EC
:103E00004A304ADA00283FF434ADA6EB0903002714
:103E100008E0109B8DF8283000270DF129060DF1E0
:103E2000280901239DF84A1011F01002069260D073
:103E30000233139A059213444A0644BF14995B183F
:103E4000B8F1000F6EDDA8EB03089DF84830580765
:103E5000C3F3800B66D459065AD53FB1039B514634
:103E600038469847002850DB01355F46302350E044
:103E70001E075CBFC3F300135F01DDE9102348BFD9
:103E80002B27002BBFF63AAF524263EB4303CDE939
:103E900010232D2732E7002730E700279DF8481030
:103EA0000DF13E03A3EB09036FF386119B458DF8DB
:103EB00048107FF631AFABEB030313932CE7109B55
:103EC00007293FF6D6ACDFE801F00C04060C080821
:103ED0000C0C1D70CDE41D80CBE4EA17C3E9005241
:103EE000C7E41D60C5E4314E0746A6F10509052368
:103EF00098E7080748BF01339BE7184607935146E8
:103F0000039B98470028079B04DA17B0BDE8F08FA1
:103F10002023C346594600290BF1FF3BEDDC454405
:103F20006D1AD84637B1039B51463846984700284A
:103F3000EBDB01359DF84A30DA0601D41B0706D5C4
:103F4000039B5146302098470028DEDB0135069B55
:103F50003BB19DF84B00039B514698470028D4DBAA
:103F60000135059F2F4406E0039B514630209847BA
:103F70000028CADB01357B1B002BF5DC0398334698
:103F80004A4651460DF032FD0028BEDB0544A844E8
:103F9000A8EB0503002B7FF76CAC039B5146202058
:103FA00098470028B1DB0135F2E700BF1A67010826
:103FB0002DE9F84344690569C76840F26C73E1175D
:103FC0000135E41841F10001022D8CBF00230123CB
:103FD000E41A61F100010029064607F1FF3751DAC2
:103FE0006FF4C77020184FF4C8724FF0000361F1EE
:103FF0000001FDF7E7FA264B03FB0044D6E90083F6
:10400000B6684FEAE37C4FF03C0E99466346C6FB28
:104010000E93A9FB0EC60EFB0366A30840F26D1EAD
:10402000022D0EFB043302463B448CBF6FF00200AE
:10403000092064270544B4FBF7F499201B1B154C99
:1040400045431CEB080C4FF0050005F10205B5FBDC
:10405000F0F5A2FB04202B4404FB010146EBE876BB
:1040600098180D4A41F1000380180C4A63F10003CF
:10407000A0FB020102FB031110EB0C0041EB060157
:10408000BDE8F8834FF4C87200232046B1E700BFB3
:1040900070FEFFFFB13A02009405F5FF8051010068
:1040A00070B5204B82689A4216DDD0E900160129CE
:1040B00076F1000503F1010392FBF3F34FEAE37499
:1040C0001DDAC91844EB0604C0E90014164901FBC7
:1040D00003238360012070BD002AFBDAD0E9004190
:1040E0000029124EA3EB0203B3FBF6F310DA01F141
:1040F00000459C4275F100050ADA0020EBE7CD434C
:104100009D426FF00045A5EB0605A541D9DAF4E71D
:10411000E41A61F1000106FB0322C0E9004182605C
:10412000D8E700BFFFC99A3B003665C400CA9A3B76
:1041300008B500F0B9F80A4941610A490122C0E90D
:1041400000220A6008490A60084A00231360084AEE
:1041500003611360C0E90233064A136008BD00BF63
:10416000E46B0108900700208C070020B81D002098
:10417000B41D0020B01D00202DE9F04107460E4679
:10418000154600F091F8C36804461BB943691A78D4
:10419000002A41D10023E3606368BB4256F8232024
:1041A00008DB324B6361204600F062F84FF0FF30CD
:1041B000BDE8F081511C616192F80080B8F12D0FCB
:1041C000EFD1911C61615178A1602D2904D19278C1
:1041D0006AB901336360E4E749B9244B636141463E
:1041E000284608F03FFB0028DDD0C4F80880D4F84A
:1041F00008802846414608F035FBB8F13A0F63695C
:1042000000D070B91B7813B963680133636020462E
:1042100000F02EF83F20CBE75A1C42611B788360E8
:10422000E5E742783A2A0BD0002222611B7813B9C5
:10423000636801336360204600F01AF8A068B7E7AE
:1042400018786268094928B901329742626004DD32
:1042500056F82230C4E90431EAE761612D783A2D3D
:104260002046D5D100F004F82846A1E7E46B010808
:10427000084A01681160084A41681160074A81686C
:104280001160074AC168074B116002691A6004F0A7
:10429000DBB900BF900700208C070020B81D00206C
:1042A000B41D0020B01D0020004870477407002096
:1042B000034A536823F0020353600020704700BF95
:1042C000002004E0134B1A6842F400721A601A6866
:1042D00042F480621A601A6842F480721A600E4BCF
:1042E0000E4A1A600E4A536843F0010353600D4BA7
:1042F0009A6D42F080529A659B6D0B4A82B003F032
:1043000080530193019B936843F48043936002B010
:10431000704700BF00200240080800200024F4007D
:10432000002004E000100240007000402DE9F0473A
:10433000DFF85880044607464FF0010914B93846A3
:10434000BDE8F08794FAA4F5B5FA85F509FA05F306
:104350002E0108EB05156FEA030A24EA03042B7B00
:10436000002BEBD058F806301B694BB946440422A9
:1043700073682846196807EA0A070DF09FFEDDE713
:10438000284698470028D9D1F0E700BFD05101084E
:1043900030B51049104889B0002210F080FA0F4D56
:1043A0000F4900220023CDE9062300240E23CDE986
:1043B0000334CDE901440B4B00944FF4407228467E
:1043C00006F04EFD0849284606F076FC204609B066
:1043D00030BD00BFED43000808160020300D00205E
:1043E000802F0020354700083A670108014806F091
:1043F00063BA00BF8C0A00202DE9F04780462048B0
:104400000F460DF02BFE0646002832D00025284628
:10441000BDE8F087237B83B12368DB680BB12046BE
:104420009847636883F8069023681B69CBB9636873
:104430000422196820460DF041FE0136103454451F
:10444000E8D3B8F1000FE2D0002DDFD02846FFF707
:104450006DFF0546002FF7D00021642010F030F9E1
:10446000F2E7204698470028E1D009FA06F31D43F9
:10447000E3E7044CDFF810A005464FF00109DEE742
:10448000CC1D0020D0510108E051010808B50346B9
:1044900008462BB1044A136000F072FD002008BDED
:1044A0006FF01500FBE700BF9407002010B5044C27
:1044B000237813B9034806F0FFF90123237010BDD8
:1044C000672200208C0A002010B504460B480DF02E
:1044D000C5FD5CB1BFF35B8F094B53E8001F013989
:1044E00043E80012002AF8D1BFF35B8F054810F0B3
:1044F000E2F90548BDE8104006F0DEB9C41D002011
:10450000C81D0020081600208C0A00200020064B41
:10451000BFF35B8F014653E8000F43E80012002A07
:10452000F9D1BFF35B8F7047C41D002070B5FFF752
:10453000EDFF084C084E0546B44200D370BD6368D9
:104540005B792BB123685B6813B1294620469847F5
:104550001034F1E7D0510108E051010810B5044CC6
:10456000044920460DF05CFB034B1C6010BD00BFEE
:10457000C40900204C550108BC1D00200E4A0F48FC
:10458000002310B513700E4A13600E4A4FF47A716F
:104590001360FFF77BFFFFF7E1FF00F075F90A4BAF
:1045A0000A4918468B4200D310BD1A1A5C681211D2
:1045B000013222711033F5E76822002077200108CC
:1045C000C41D0020C81D0020D0510108E051010881
:1045D00001460022014800230DF043BBC40900201E
:1045E00001480DF0DCBB00BFC4090020024B0146AE
:1045F00018680DF02FBC00BFBC1D002001480DF055
:1046000064BC00BFC40900202DE9F041324B18788A
:1046100000285FD0FFF7E4FF0446002856D12F4B57
:104620002F4C1B68002B12DD10F0F1F80A2200233A
:10463000FDF718F8D4E90032C01A40F2E93361EB13
:104640000201984271F1000101D3FFF76FFFD4E935
:10465000003213F57A7342F10002C4E90032BDE87A
:10466000F041FFF7CBBF6B685B793BB121784B071B
:1046700017D52B6821461B682846984710354545B5
:10468000F1D32046FFF7B2FFBFF35B8F154B53E822
:10469000001F013943E80012002AF8D1BFF35B8FF5
:1046A000BDE720462688C1F3C20700F0A3FAC6F38F
:1046B00082160246002EDCD00028DADB01233946C0
:1046C000284600F091F9B042D8D3D2E7064DDFF882
:1046D0001C80D4E7BDE8F08167220020C41D0020C3
:1046E00000160020C81D0020D0510108E05101082B
:1046F00070B50D4D297861B90120FFF77DFE0B4C97
:104700000B4EB44206D3FFF77FFF0028FBD10123F5
:104710002B7070BD63685B791BB1236820469B6872
:1047200098471034EDE700BF68220020D0510108FF
:10473000E051010800212DE9F0470846FFF75CFE33
:10474000044648B34FF4FA784FF0000906F0DAFE59
:104750001A4B186030B11A4B1B68092B02DD19483F
:1047600006F0AAF8184FDFF85CA0002544B12046F7
:10477000FFF7DCFD044618B94FF0FF384FF0FF3962
:10478000FFF742FF064628B9B5B942464B465046A8
:1047900006F0C6F83546E9E74FF0FF384FF0FF392D
:1047A000D4E72B689B691BB1002211462846984725
:1047B0001035BD42F5D3E8E7044DFAE7C01D0020EF
:1047C000C81D00208C0A0020E0510108D0510108CA
:1047D00013B518480DF042FC174B1B7873B1EFF37B
:1047E0001184102383F31288BFF36F8FFFF70CFF40
:1047F00084F31188BFF36F8F02B010BD0F4B1B689D
:10480000002BF9D050B900220023CDE900230C4839
:1048100042F21072002307F0CDF9EDE70928EBD141
:10482000074810F048F8074802B0BDE8104006F00D
:1048300043B800BFC81D002068220020C01D002012
:10484000081600208C0A002010B5064B1B68044691
:1048500098472146A06004480DF082FABDE8104058
:10486000FFF7B6BF94070020C4090020044A054B97
:104870009B1AB1EBD30F34BF52F8310000207047C0
:1048800058510108D05101080B480C4B30B51B1A88
:104890000B4CDB0800210430994200D130BD10F8E8
:1048A0003120256802F0070225F007052A4344F865
:1048B000042B0131F0E700BF58510108D051010825
:1048C000000A0020F8B50B4F0B4DED1B0646ED0816
:1048D0000024AC4203D14FF0FF342046F8BD57F816
:1048E000340020B13146FBF7FFFC0028F5D001343D
:1048F000EFE700BF58510108D051010800282DE909
:10490000F047884615461F461DDADFF89890264E78
:104910004FF0000AA6EB090636095446B24509F1E4
:10492000100902D12046BDE8F08759F80C0C3B462F
:1049300000792A464146FFF7E1FF844238BF04462A
:104940000AF1010AEAE7194B194AD21AB5EBD20F5C
:1049500026D203EBC5031C79BC4228BF3C46154E4A
:10496000C0B200EB400056F825300722824023EA0F
:10497000020304F00702824013430021032223FABA
:1049800002F000F00700814202F1030238BF014645
:104990001E2AF4D123F007030B4346F82530C1E764
:1049A0000024DCE7D0510108E0510108585101080A
:1049B000D0510108000A0020F8B5094D094BED1A45
:1049C00006460F46ED080024AC4200D3F8BD002196
:1049D00022B23B46304601340DF068FBA4B2F3E747
:1049E000D05101085851010870B14168097973B17B
:1049F000002A17DBCBB20C4951F8220003EB43032A
:104A0000D84000F0070070474FF0FF31EFE707494B
:104A10000748401AB2EBD00F3ABF01EBC201087948
:104A20001846704704207047000A002058510108BA
:104A3000D05101082DE9F04F8FB004AFC1F34A28DF
:104A4000B8600D4691467B600C0DB8F1000F67D041
:104A5000002607F114034FF0040B4FF00A0AC7F8C1
:104A60000C80C7E907667E620193CDF808B0CDF8E7
:104A700000A007F11C03F96832464846FEF7F2FB36
:104A8000B0F5006F034620D32A48036813F0060FE1
:104A900017D06C468AB0D9F8041004AB264DC3E990
:104AA000055140F2FF71D9611A464FF40071198423
:104AB000224B42F8103F4FF412513346FFF7BAFF32
:104AC000A5462C37BD46BDE8F08FC0F30A0804F1B7
:104AD0001700184420F0070080083B60FFF778FDBE
:104AE00068F35325044690B13B68154AC7E9083678
:104AF00000F1100107F11403F961CDE900A3CDF82D
:104B000008B0F96807F11C034846FEF7ABFB68F3F1
:104B100053257B68B9682A4620460DF003FBD0E791
:104B200004F1170020F007008008FFF751FD04464C
:104B3000EDE700BF0C0A00204F67010804000001E8
:104B4000F72001082DE9F04F87B0DDE91279DDE9A2
:104B5000105A0446039193469846DFB1CDF8009071
:104B60003B46524610210020CDF81490FEF7A8F9DC
:104B7000B0F5006F06460ED31C48036813F0060F0D
:104B800030D01B4A40F2FF73022107B0BDE8F04F5E
:104B90000DF021BB3E4605F11700304420F0070020
:104BA00004F007048008FFF713FD0BF0070BE40087
:104BB00044EA8B1444EA462444EA0554054640B1CD
:104BC0003FB1CDF800903B46524631461030FEF7DB
:104BD00077F9039943462246284607B0BDE8F04FCF
:104BE0000DF0A0BA07B0BDE8F08F00BF0C0A00209E
:104BF0008E670108406820B1034BC01A40F38F0054
:104C000070474FF0FF307047000A00200EB403B524
:104C100003AB014653F8042B044801930DF00CFB41
:104C200002B05DF804EB03B0704700BF47220108F3
:104C3000CA0605D48B064CBF02490349FFF7E6BFFD
:104C4000704700BFE36B0108C66701082DE9F04F0C
:104C500089B09A46149B06939DF84CB0159B05931A
:104C6000169B179E049304460D469046BBF1000F19
:104C700000F09D8006F4807307930DF015FA06F09E
:104C80000209024600283ED092492046FFF7BEFFA7
:104C90000746B9F1000F08D016F0440F35D18E4900
:104CA0002A462046FFF7B2FF074406F0010353B13E
:104CB0008A4B8B4953F82B208A4B2046002A08BF89
:104CC0001A46FFF7A3FF06F48073002B49D006F0C5
:104CD0000803002B63D1B8F1000F66D08249424629
:104CE0002046FFF793FF0546069B3D44002B6DD100
:104CF000049B002B73D1F30700F1E5803146204679
:104D0000FFF796FFD9E00746C3E7784B18680028FD
:104D1000CAD0774B4FF47A791B68B5FBF3F54FF4A3
:104D20006163B5FBF0F100FB115509FB05F54FF090
:104D30003C0CB1FBF3F203FB1211B5FBF0FEB1FB2F
:104D4000FCF300FB1E550CFB131109FB05F500914C
:104D5000B5FBF0F56749CDE901E52046FFF756FFC1
:104D6000A2E706F00803EBB1634B644953F82B202C
:104D70002046FFF74BFF0546B8F1000F05D05A4912
:104D800042462046FFF742FF0544BAF1000FABD080
:104D90005B4952462046FFF739FF0544A4E74FF030
:104DA000000AE1E706F00805E6E745469CE7BAF1A8
:104DB000010F069B06D1002B65D1049B002B7CD0F4
:104DC00000250CE0002BF8D04E485DE04E48069BD5
:104DD0004E4922460CF04CFD049B002B69D0DFF8B5
:104DE0003081DFF83091049F3146102F204628BFD4
:104DF0001027FFF71DFF4FF0000A554546DC059BC5
:104E000049461A782046FFF701FF4FF0010A1AF0D1
:104E1000070F03D141462046FFF7F8FE57453CD91E
:104E2000059B494613F80A202046FFF7EFFE0AF1DA
:104E3000010ABAF1100FEAD1374920464FF0000AB3
:104E4000FFF7E4FE5246059B9A5C344B995C11F0E7
:104E5000970F08BF2E2232492046FFF7D7FE0AF1EE
:104E6000010ABAF1100F1DD01AF0070F03D1414605
:104E70002046FFF7CBFE57455246E4D84146204630
:104E8000FFF7C4FEEBE720485D46A0E74146204619
:104E9000FFF7BCFE0AF1010AAFE722492046FFF7FF
:104EA000B5FEC4E7059B3B440593049BDB1B0493C1
:104EB00099D1BBF1000F7FF41EAF204609B0BDE8C9
:104EC000F04F0DF0ACB9074A05492046FFF79EFEAA
:104ED00014E700BFDC750108CE67010860550108C2
:104EE00094630108C9670108F3670108D41D002015
:104EF000D01D0020D767010874550108F767010825
:104F0000FD6701087D2201084722010839220108B6
:104F10000A680108026801080C680108F55E0108CA
:104F2000C07501080868010873B542F20F738B421F
:104F300028BF0B4605680F4A0446052168460CF059
:104F40003EFD63680C495B6806460B2228460DF05F
:104F500058F963683246694628465B680DF051F996
:104F6000636806495B681B2228460DF04AF902B0C7
:104F700070BD00BF667C01082A6801080E68010840
:104F8000074A00210123904206D8064A01B90123AD
:104F90001360054B1860704740085B000121F2E781
:104FA00040420F00D01D0020D41D0020014B0360A3
:104FB000002070478855010810B5044605F006F931
:104FC0000349024620460DF095FB002010BD00BFAE
:104FD0006D68010837B5134600220192054601AA03
:104FE00058680A210DF074FD019C4CB920EAE0706C
:104FF0000A2180FB01010FF063FB204603B030BDA6
:105000002246034928460DF091FB019CF5E700BFBD
:105010009968010808B5034A03490DF06BFB0020AD
:1050200008BD00BF8969010890690108F7B51746F6
:105030000023054601AA0A21B86801930DF048FD36
:105040001749C6B228460DF063FB019C44B12246C5
:10505000144928460DF06AFB019C204603B0F0BDC0
:10506000042E09D91049324628460DF05FFB284628
:105070000DF091FB0124F0E77868FFF723FC021E96
:1050800007DA7A68094928460DF050FB6FF01504DD
:10509000E3E7334612B2214620460DF007F8DCE77D
:1050A000BB690108216A0108486A01085F6A0108B2
:1050B00007B500230090694604488DF8043006F0D7
:1050C00081FB9DF8040003B05DF804FB0323010895
:1050D00010B5044605F05CF80749024620460DF07D
:1050E00009FB204605490DF005FB0548214606F061
:1050F00083FB002010BD00BFBE6A0108DD6A010805
:1051000005510008F0B599B0D0F8BC7004460D46C2
:105110000FF0D7F9064606F0F5F9324B3249334A1B
:10512000002E08BF1E46844218BF0A462346304957
:10513000009628460DF0DEFAD4E90A23CDE90023D3
:105140002C4994F90E30227B28460DF0D3FA202208
:1051500010A9204605F0C0FD2749D4F8803002464A
:1051600028460DF0C7FA04A920460FF0BFF908BB86
:105170000AA80FF0C5F900BB049EDDF814E0642115
:10518000A6FB010CDDE90A2301FB0EC1FCF76AFA5C
:105190001A490346324628460DF0ACFA0AA92046C1
:1051A0000FF09DF9024668B1154928460DF0A2FAA4
:1051B00019B0F0BD0AA80FF0A3F9124928460DF066
:1051C00099FAEBE70A9B6422F91A4A430091B2FB71
:1051D000F7F20D49CDE9017228463A460DF08AFAF8
:1051E000E6E700BFE76A01080A680108A57F010831
:1051F000EA6A0108F66A0108226B0108396B0108A6
:10520000816B01085E6B0108AE6B0108F0B50025EB
:1052100091B00446294608AF1C2209A807F06EFA8F
:10522000134E1A222021384607F068FA2146114809
:1052300006F0E2FA07AA4FF4006130460FF043F996
:10524000079A0097C2F5006164234B43DB0A05937C
:105250004FF40063CDE90313CDE90132204606493E
:105260002B46A6F140020DF045FA284611B0F0BDDC
:10527000403B00207D520008FF6B010870B50446DA
:10528000D0F8BC6088B00D4607A90FF028F9024697
:1052900028B10F4928460DF02DFA08B070BD204600
:1052A0000FF00FF9079B0096F11ACDE90131094B78
:1052B00064224A43002818BF0346B2FBF6F20649AF
:1052C000CDE90362284622460DF014FAE5E700BF57
:1052D000816B0108E76A0108486C010838B513467C
:1052E000054610225868002107F052FF0446FFF7D8
:1052F000DFFE38B90D49224628460DF017FA6FF047
:10530000150038BD06F0FEF8844204D1084928464D
:105310000DF00CFAF3E7204605F0B0FE28460549EB
:1053200022460DF0E7F90020EBE700BFAC6C010866
:10533000C76C0108EF6C010838B51346054610220A
:105340005868002107F024FF0446FFF7B1FE38B982
:105350000D49224628460DF0E9F96FF0150038BDD9
:1053600006F0D0F8844204D1084928460DF0DEF951
:10537000F3E7204605F0A0FF2846054922460DF038
:10538000B9F90020EBE700BFAC6C01082E6D0108F5
:10539000546D010838B5134605461022586800219F
:1053A00007F0F6FE0446FFF783FE38B90D492246A2
:1053B00028460DF0BBF96FF0150038BD06F0A2F8D5
:1053C000844204D1084928460DF0B0F9F3E720469D
:1053D00002F016FE2846054922460DF08BF9002002
:1053E000EBE700BFAC6C01088F6D0108B46D0108DC
:1053F00010B50C4600210DF020FB00B10068034AF7
:1054000020600023C4E90123E36010BDCE6E0108D3
:1054100010B50C4600210DF014FB00B10068034AE2
:1054200020600023C4E90123E36010BDCE6E0108B3
:1054300070B50646506815460DF007FB044640B9A6
:105440006A68104930460DF071F96FF01204204679
:1054500070BD0EF052FF30B16A680B4930460DF056
:105460003BF90024F3E720460EF03EFF044630B13E
:1054700003466A68054930460DF058F9E7E76A685F
:105480000349EBE7EC6D0108016E0108236E01088A
:10549000506E01082DE9F04F8FB0044601A80F4669
:1054A000904604F04BFF019B2C4A03EB401B082164
:1054B00020460DF004F9019D5D4503D300200FB097
:1054C000BDE8F08F2E680EB1337833B9244A2B46ED
:1054D000302102A807F082F902AE022F07D1D8F8D6
:1054E0000410304607F05CFC08B92035E4E71D4A9B
:1054F0003346082120460DF0E2F828460EF0FDFE66
:10550000194A1A4B0821002808BF1346184A20469A
:105510000DF0D5F8EB69002BE7D01E68002EE4D023
:105520003368002BE1D0134A082120460DF0C7F85C
:10553000B2464FF0000933680F4A4B4505D80F4A71
:10554000082120460DF0BBF8CFE75AF8043F0821A8
:1055500020460DF0B4F809F10109ECE77D6E010871
:10556000876E01088C6E0108746E0108926501084F
:10557000FA6D0108916E010893630108E36B01085D
:105580001FB50C68D1E9043203944C6802948C680E
:105590000194C96800910133034902F26C720DF065
:1055A000A9F804B010BD00BF186F0108F7B5137853
:1055B0003A2B06460F46154614D1541C23783A2B35
:1055C00028D101340A2201A9204607F03BFD019AA7
:1055D0003860A242034617D01078A8B93C2B15D9E1
:1055E00015490EE00A2201A9284607F02BFD019C6F
:1055F000B860AC4208D023783A2B05D1172807D9D8
:105600000E4930460DF092F86FF0150003B0F0BD72
:105610000134D3E70A2201A9204607F013FD019BBC
:105620007860A342F0D01A783A2AEDD13B2801D90C
:105630000349E6E75C1CC5E7576F0108396F0108AD
:10564000476F01082DE9F04190B00D46044602A9CC
:1056500001201746FEF704F807A902A806F0F0FBA0
:10566000032D55D17D680A2201A9284607F0EAFCDE
:10567000019EB542804615D032782D2A12D10136CE
:105680000A2201A9304607F0DDFC019B9E4209D0A9
:105690001A782D2A06D1451E0B2D0CD928492046F3
:1056A0000DF044F820460DF076F86FF01505284609
:1056B00010B0BDE8F0815E1C0A2201A9304607F057
:1056C000C1FC019B9E42EDD01B78002BEAD1431E0A
:1056D0001E2B01D91B49E2E7A8F26C73CDE90B53ED
:1056E000BA680A9007A92046FFF760FF0028D9D1C1
:1056F00007A80CF003FCB1F1FF3F08BFB0F1FF3F7A
:10570000CDE9020108D1104920460DF00FF8CCE791
:10571000022DC7D17A68E5E700230493012002A98E
:10572000FDF7D4FF054628B10246084920460CF093
:10573000FDFFBAE707A92046FFF722FFB7E700BF42
:10574000676F0108766F0108836F0108AC6F01086D
:105750002DE9F3411446884607461022606800216F
:1057600007F016FDB8F1020F064607D8284A202395
:10577000082138460CF0A3FF336816E00A22002106
:10578000A06807F005FDC5B2214A2B46082138461E
:105790000CF095FFB8F1030F1ED1102D0FD0202D66
:1057A000EAD0082D0ED13378DBB20022CDE90032E9
:1057B0000821184A38460CF082FF002009E033889F
:1057C0009BB2F2E73846144A08210CF078FF6FF0DC
:1057D000150002B0BDE8F081E0681022002107F05A
:1057E000ADFD0E4ACDE900010446082138460CF013
:1057F00066FF102D06D0202D07D0082DE2D1E4B28F
:105800003470DAE7A4B23480D7E73460D5E700BF5C
:10581000F16F01081C700108067001082F70010863
:105820002DE9F04F87B000230193524BDFF848A1D8
:1058300091460122074688461A60FEF779FC4FF030
:10584000FF3520262C46494652464046FEF794FC3A
:10585000411C06D16A1C41D1484938460CF066FF0C
:1058600017E073281AD0772828D0612811D1DFF8E3
:1058700010B101AADBF8000010210DF029F9019BFD
:105880000546002BDFD0DBF800203E4938460CF0FF
:105890004DFF6FF0150007B0BDE8F08FDFF8E0B006
:1058A00001AADBF8000000210DF012F9019B04466B
:1058B000002BC8D0DBF800203349E7E7DFF8C0B0A1
:1058C00001AADBF8000000210DF002F9019B064659
:1058D000002BB8D0DBF800202C49D7E7631C01D19E
:1058E0002B49BAE75FFA86F8C6F3C406002C3FD00E
:1058F00002AB29461A46A6EB050C0CE0B8F1100FD6
:105900001DD0B8F1200F20D0B8F1080F2AD10878A7
:10591000187031443344A64203D80CEB0100102820
:10592000ECD9102CA14628BF4FF0100929464B4650
:10593000384601F013F81035A4EB0904D6E70888BF
:1059400080B21870000A5870E3E7086818704FEAD0
:10595000102E83F801E04FEA104E000E83F802E0AB
:10596000D870D6E70B4A082138460CF0A8FE90E71D
:10597000204690E78C0700207F70010886700108A0
:10598000B01D002045700108587001086B700108B7
:10599000A37001080670010870B50F4E04463378F5
:1059A0000D4671B123B1BDE870400C490CF0BEBE8C
:1059B000012333700A4920460CF09CFE012333700A
:1059C00004E083F001033370002BF3D12946204615
:1059D000BDE870400CF0F9BE69220020BD700108DE
:1059E000F87001082DE9F041DFF8F0803C4E0546E3
:1059F0000C468F18A74201D1BDE8F08198F800202D
:105A000014F8013B182A22D1112B20D1354C3649EC
:105A100022680026284688F800600CF06BFE2846B5
:105A20003146FFF7B9FF314B18780028E4D1304AEE
:105A300023681168042B2EDC08B12360116013F079
:105A400003012FD1126813681BBA1360D4E7A3F1C6
:105A50003002092A88F8003004D923F02002413AA4
:105A6000052A04D83168234A535401313160336820
:105A7000022BBFD110221F48002107F089FB1E4ACC
:105A8000136803F8010B1360164A1368013313609F
:105A900000233360AEE7086800BA41F8040B043B0A
:105AA0000120C7E75B4203F0030358BF59420229B4
:105AB00004D1126813885BBA9BB2C6E703299BD155
:105AC000106802681104C2F3074301F47F010B431D
:105AD00002F47F42134303608EE700BF6A22002076
:105AE000D81D0020DC1D0020227101086B2200203F
:105AF000E01D00206C220020E41D00202DE9F84F5D
